:1000000013C02DC02CC02BC02AC029C028C027C0B7
:1000100026C026C024C023C022C021C020C01FC0CB
:100020001EC01DC01CC01BC011241FBECFEFD2E0DC
:10003000DEBFCDBF12E0A0E0B1E0E2E5F3E002C038
:1000400005900D92A430B107D9F722E0A4E0B2E008
:1000500001C01D92A830B207E1F730D078C1D0CFEF
:100060001F920F920FB60F9211248F939F9380913E
:1000700004028F5F80930402909104028091060233
:10008000981710F0409A01C0409890910402809116
:100090000502981710F0429A01C04298909104020C
:1000A00080910702981710F0419A01C041989F91E2
:1000B0008F910F900FBE0F901F9018958091810027
:1000C0008A6080938100109285001092840081E004
:1000D00090E0909389008093880080916F00826007
:1000E00080936F00789481E090E0A8D0389A3A9A93
:1000F000399A409A429A419A6898709AD1E0C0E041
:100100008EE0A82EB12C94EAC92ED12C2BEDE22E34
:10011000F12C01E810E0609B1AC087EC90E0019799
:10012000F1F700C00000CD0FCF3F21F0C11103C097
:10013000D1E001C0DFEFEC2FF0E0EC5FFE4F8081FB
:10014000809307028093060210920502E4CF72D0DA
:10015000B501D6D0161617063CF492E09A95F1F741
:1001600000C061507109F6CF65D0B601C9D0FB015E
:10017000EC5FFE4F8081809306025CD0B701C0D057
:10018000FB01EC5FFE4F80818093050253D0B801E4
:10019000B7D0FB01EC5FFE4F808180930702BBCF9D
:1001A0008F929F92AF92BF92CF92DF92EF92FF9287
:1001B000CF93DF93EC01688179818A819B816115FE
:1001C00071058105910521F464E279ED8BE597E0F5
:1001D0002DE133EF41E050E055D049015A0127EAC3
:1001E00031E440E050E035D06B017C012CEE34EF7F
:1001F0004FEF5FEFC501B4012CD0DC01CB018C0DBA
:100200009D1DAE1DBF1DB7FF03C00197A109B048DA
:1002100088839983AA83BB839F77DF91CF91FF90D7
:10022000EF90DF90CF90BF90AF909F908F90089508
:10023000B7DF089580E091E0B3DF0895A0E0B0E07B
:100240008093000190930101A0930201B0930301F8
:100250000895EE27FF27AA27BB2708C0A20FB31FC8
:10026000E41FF51F220F331F441F551F96958795D6
:100270007795679598F37040A9F7009799F7BD01B6
:10028000CF010895052E97FB16F400940FD057FD6B
:1002900005D014D007FC02D046F408C05095409514
:1002A000309521953F4F4F4F5F4F08959095809522
:1002B000709561957F4F8F4F9F4F0895A1E21A2E41
:1002C000AA1BBB1BFD010DC0AA1FBB1FEE1FFF1FFA
:1002D000A217B307E407F50720F0A21BB30BE40B4A
:1002E000F50B661F771F881F991F1A9469F7609591
:1002F0007095809590959B01AC01BD01CF0108954B
:1003000097FB072E16F4009406D077FD08D00BD08B
:1003100007FC05D03EF4909581959F4F0895709508
:1003200061957F4F0895AA1BBB1B51E107C0AA1F0F
:10033000BB1FA617B70710F0A61BB70B881F991F86
:100340005A95A9F780959095BC01CD010895F89430
:02035000FFCFDD
:10035200010000000000000000000000000000009A
:10036200000000000000000000000000000000008B
:100372000101010101010101010101010102020268
:10038200020202020203030303030303040404043C
:1003920004050505050606060607070707080808F7
:1003A2000909090A0A0A0B0B0B0C0C0D0D0D0E0E96
:1003B2000F0F101011111212131314141515161613
:1003C20017181819191A1B1B1C1D1D1E1F2020216E
:1003D200222323242526272728292A2B2C2D2E2F9A
:1003E200303132323334363738393A3B3C3D3E3F96
:1003F20040424344454648494A4B4D4E4F51525361
:10040200555657595A5C5D5F606263656668696BF1
:100412006D6E7072737577787A7C7E7F8183858743
:10042200898A8C8E90929496989A9C9EA0A2A4A758
:10043200A9ABADAFB1B4B6B8BABDBFC1C4C6C8CB23
:10044200CDD0D2D5D7DADCDFE1E4E7E9ECEFF1F4A5
:04045200F7F9FCFFBB
:00000001FF
